{
  "_format": "hh-sol-artifact-1",
  "contractName": "Isi",
  "sourceName": "contracts/Isi.sol",
  "abi": [
    {
      "inputs": [],
      "stateMutability": "nonpayable",
      "type": "constructor"
    },
    {
      "anonymous": false,
      "inputs": [
        {
          "indexed": false,
          "internalType": "uint256",
          "name": "serviceId",
          "type": "uint256"
        },
        {
          "indexed": false,
          "internalType": "address",
          "name": "buyer",
          "type": "address"
        },
        {
          "indexed": false,
          "internalType": "uint256",
          "name": "amount",
          "type": "uint256"
        }
      ],
      "name": "ServiceBought",
      "type": "event"
    },
    {
      "anonymous": false,
      "inputs": [
        {
          "indexed": false,
          "internalType": "uint256",
          "name": "serviceId",
          "type": "uint256"
        },
        {
          "indexed": false,
          "internalType": "string",
          "name": "name",
          "type": "string"
        },
        {
          "indexed": false,
          "internalType": "uint256",
          "name": "price",
          "type": "uint256"
        },
        {
          "indexed": false,
          "internalType": "address",
          "name": "merchant",
          "type": "address"
        }
      ],
      "name": "ServiceCreated",
      "type": "event"
    },
    {
      "anonymous": false,
      "inputs": [
        {
          "indexed": false,
          "internalType": "uint256",
          "name": "serviceId",
          "type": "uint256"
        },
        {
          "indexed": false,
          "internalType": "address",
          "name": "buyer",
          "type": "address"
        },
        {
          "indexed": false,
          "internalType": "uint256",
          "name": "amount",
          "type": "uint256"
        }
      ],
      "name": "ServiceDelivered",
      "type": "event"
    },
    {
      "anonymous": false,
      "inputs": [
        {
          "indexed": false,
          "internalType": "uint256",
          "name": "serviceId",
          "type": "uint256"
        },
        {
          "indexed": false,
          "internalType": "address",
          "name": "buyer",
          "type": "address"
        },
        {
          "indexed": false,
          "internalType": "uint256",
          "name": "amount",
          "type": "uint256"
        }
      ],
      "name": "ServiceRefunded",
      "type": "event"
    },
    {
      "inputs": [
        {
          "internalType": "uint256",
          "name": "_serviceId",
          "type": "uint256"
        }
      ],
      "name": "buyService",
      "outputs": [],
      "stateMutability": "payable",
      "type": "function"
    },
    {
      "inputs": [
        {
          "internalType": "uint256",
          "name": "_serviceId",
          "type": "uint256"
        }
      ],
      "name": "confirmDelivery",
      "outputs": [],
      "stateMutability": "nonpayable",
      "type": "function"
    },
    {
      "inputs": [
        {
          "internalType": "string",
          "name": "_name",
          "type": "string"
        },
        {
          "internalType": "string",
          "name": "_description",
          "type": "string"
        },
        {
          "internalType": "uint256",
          "name": "_price",
          "type": "uint256"
        }
      ],
      "name": "createService",
      "outputs": [],
      "stateMutability": "nonpayable",
      "type": "function"
    },
    {
      "inputs": [
        {
          "internalType": "uint256",
          "name": "",
          "type": "uint256"
        }
      ],
      "name": "escrows",
      "outputs": [
        {
          "internalType": "uint256",
          "name": "",
          "type": "uint256"
        }
      ],
      "stateMutability": "view",
      "type": "function"
    },
    {
      "inputs": [],
      "name": "owner",
      "outputs": [
        {
          "internalType": "address",
          "name": "",
          "type": "address"
        }
      ],
      "stateMutability": "view",
      "type": "function"
    },
    {
      "inputs": [
        {
          "internalType": "uint256",
          "name": "_serviceId",
          "type": "uint256"
        }
      ],
      "name": "refund",
      "outputs": [],
      "stateMutability": "nonpayable",
      "type": "function"
    },
    {
      "inputs": [],
      "name": "serviceCounter",
      "outputs": [
        {
          "internalType": "uint256",
          "name": "",
          "type": "uint256"
        }
      ],
      "stateMutability": "view",
      "type": "function"
    },
    {
      "inputs": [
        {
          "internalType": "uint256",
          "name": "",
          "type": "uint256"
        }
      ],
      "name": "services",
      "outputs": [
        {
          "internalType": "string",
          "name": "name",
          "type": "string"
        },
        {
          "internalType": "string",
          "name": "description",
          "type": "string"
        },
        {
          "internalType": "uint256",
          "name": "price",
          "type": "uint256"
        },
        {
          "internalType": "address payable",
          "name": "merchant",
          "type": "address"
        },
        {
          "internalType": "address",
          "name": "buyer",
          "type": "address"
        },
        {
          "internalType": "bool",
          "name": "isActive",
          "type": "bool"
        },
        {
          "internalType": "bool",
          "name": "isDelivered",
          "type": "bool"
        }
      ],
      "stateMutability": "view",
      "type": "function"
    }
  ],
  "bytecode": "0x6080604052348015600f57600080fd5b5033600360006101000a81548173ffffffffffffffffffffffffffffffffffffffff021916908373ffffffffffffffffffffffffffffffffffffffff160217905550611b55806100606000396000f3fe60806040526004361061007b5760003560e01c80638da5cb5b1161004e5780638da5cb5b1461013a578063c22c4f4314610165578063c594e5ec146101a8578063fd84cb97146101c45761007b565b8063012f52ee14610080578063278ecde1146100bd5780637b15f1b6146100e65780637defdd731461010f575b600080fd5b34801561008c57600080fd5b506100a760048036038101906100a29190610e7b565b6101ed565b6040516100b49190610eb7565b60405180910390f35b3480156100c957600080fd5b506100e460048036038101906100df9190610e7b565b610205565b005b3480156100f257600080fd5b5061010d60048036038101906101089190611018565b61050a565b005b34801561011b57600080fd5b5061012461072a565b6040516101319190610eb7565b60405180910390f35b34801561014657600080fd5b5061014f610730565b60405161015c91906110e4565b60405180910390f35b34801561017157600080fd5b5061018c60048036038101906101879190610e7b565b610756565b60405161019f97969594939291906111ba565b60405180910390f35b6101c260048036038101906101bd9190610e7b565b610902565b005b3480156101d057600080fd5b506101eb60048036038101906101e69190610e7b565b610b2f565b005b60016020528060005260406000206000915090505481565b8060008111801561021857506002548111155b610257576040517f08c379a000000000000000000000000000000000000000000000000000000000815260040161024e90611283565b60405180910390fd5b813373ffffffffffffffffffffffffffffffffffffffff1660008083815260200190815260200160002060040160009054906101000a900473ffffffffffffffffffffffffffffffffffffffff1673ffffffffffffffffffffffffffffffffffffffff16146102fb576040517f08c379a00000000000000000000000000000000000000000000000000000000081526004016102f290611315565b60405180910390fd5b600080600085815260200190815260200160002090508060040160159054906101000a900460ff1615610363576040517f08c379a000000000000000000000000000000000000000000000000000000000815260040161035a90611381565b60405180910390fd5b600060016000868152602001908152602001600020549050600081116103be576040517f08c379a00000000000000000000000000000000000000000000000000000000081526004016103b5906113ed565b60405180910390fd5b6000600160008781526020019081526020016000208190555060008260040160006101000a81548173ffffffffffffffffffffffffffffffffffffffff021916908373ffffffffffffffffffffffffffffffffffffffff16021790555060003373ffffffffffffffffffffffffffffffffffffffff16826040516104419061143e565b60006040518083038185875af1925050503d806000811461047e576040519150601f19603f3d011682016040523d82523d6000602084013e610483565b606091505b50509050806104c7576040517f08c379a00000000000000000000000000000000000000000000000000000000081526004016104be9061149f565b60405180910390fd5b7f74e8d4e9795e6bedb17933f6fec5f2c628daf147ccab01732307ad01f00761328633846040516104fa939291906114bf565b60405180910390a1505050505050565b6000811161054d576040517f08c379a000000000000000000000000000000000000000000000000000000000815260040161054490611542565b60405180910390fd5b6002600081548092919061056090611591565b91905055506040518060e001604052808481526020018381526020018281526020013373ffffffffffffffffffffffffffffffffffffffff168152602001600073ffffffffffffffffffffffffffffffffffffffff16815260200160011515815260200160001515815250600080600254815260200190815260200160002060008201518160000190816105f491906117e5565b50602082015181600101908161060a91906117e5565b506040820151816002015560608201518160030160006101000a81548173ffffffffffffffffffffffffffffffffffffffff021916908373ffffffffffffffffffffffffffffffffffffffff16021790555060808201518160040160006101000a81548173ffffffffffffffffffffffffffffffffffffffff021916908373ffffffffffffffffffffffffffffffffffffffff16021790555060a08201518160040160146101000a81548160ff02191690831515021790555060c08201518160040160156101000a81548160ff0219169083151502179055509050507f5c9acd46f2e5e40573d8a3a367157a055bd7720ea1be5ca1d6fe780351fd7e4160025484833360405161071d94939291906118b7565b60405180910390a1505050565b60025481565b600360009054906101000a900473ffffffffffffffffffffffffffffffffffffffff1681565b600060205280600052604060002060009150905080600001805461077990611608565b80601f01602080910402602001604051908101604052809291908181526020018280546107a590611608565b80156107f25780601f106107c7576101008083540402835291602001916107f2565b820191906000526020600020905b8154815290600101906020018083116107d557829003601f168201915b50505050509080600101805461080790611608565b80601f016020809104026020016040519081016040528092919081815260200182805461083390611608565b80156108805780601f1061085557610100808354040283529160200191610880565b820191906000526020600020905b81548152906001019060200180831161086357829003601f168201915b5050505050908060020154908060030160009054906101000a900473ffffffffffffffffffffffffffffffffffffffff16908060040160009054906101000a900473ffffffffffffffffffffffffffffffffffffffff16908060040160149054906101000a900460ff16908060040160159054906101000a900460ff16905087565b8060008111801561091557506002548111155b610954576040517f08c379a000000000000000000000000000000000000000000000000000000000815260040161094b90611283565b60405180910390fd5b600080600084815260200190815260200160002090508060040160149054906101000a900460ff166109bb576040517f08c379a00000000000000000000000000000000000000000000000000000000081526004016109b29061194f565b60405180910390fd5b80600201543414610a01576040517f08c379a00000000000000000000000000000000000000000000000000000000081526004016109f8906119bb565b60405180910390fd5b600073ffffffffffffffffffffffffffffffffffffffff168160040160009054906101000a900473ffffffffffffffffffffffffffffffffffffffff1673ffffffffffffffffffffffffffffffffffffffff1614610a94576040517f08c379a0000000000000000000000000000000000000000000000000000000008152600401610a8b90611a27565b60405180910390fd5b338160040160006101000a81548173ffffffffffffffffffffffffffffffffffffffff021916908373ffffffffffffffffffffffffffffffffffffffff1602179055503460016000858152602001908152602001600020819055507f4edf016340498079fac90607146e71517de477a412e60d4d20f98db4978b8ae2833334604051610b22939291906114bf565b60405180910390a1505050565b80600081118015610b4257506002548111155b610b81576040517f08c379a0000000000000000000000000000000000000000000000000000000008152600401610b7890611283565b60405180910390fd5b813373ffffffffffffffffffffffffffffffffffffffff1660008083815260200190815260200160002060040160009054906101000a900473ffffffffffffffffffffffffffffffffffffffff1673ffffffffffffffffffffffffffffffffffffffff1614610c25576040517f08c379a0000000000000000000000000000000000000000000000000000000008152600401610c1c90611315565b60405180910390fd5b600080600085815260200190815260200160002090508060040160159054906101000a900460ff1615610c8d576040517f08c379a0000000000000000000000000000000000000000000000000000000008152600401610c8490611381565b60405180910390fd5b60006001600086815260200190815260200160002054905060008111610ce8576040517f08c379a0000000000000000000000000000000000000000000000000000000008152600401610cdf90611a93565b60405180910390fd5b6000600160008781526020019081526020016000208190555060018260040160156101000a81548160ff02191690831515021790555060008260030160009054906101000a900473ffffffffffffffffffffffffffffffffffffffff1673ffffffffffffffffffffffffffffffffffffffff1682604051610d689061143e565b60006040518083038185875af1925050503d8060008114610da5576040519150601f19603f3d011682016040523d82523d6000602084013e610daa565b606091505b5050905080610dee576040517f08c379a0000000000000000000000000000000000000000000000000000000008152600401610de590611aff565b60405180910390fd5b7f6471746c245c2311aad65f6b11b5225863b1c05f41087658071bf674634593c8863384604051610e21939291906114bf565b60405180910390a1505050505050565b6000604051905090565b600080fd5b600080fd5b6000819050919050565b610e5881610e45565b8114610e6357600080fd5b50565b600081359050610e7581610e4f565b92915050565b600060208284031215610e9157610e90610e3b565b5b6000610e9f84828501610e66565b91505092915050565b610eb181610e45565b82525050565b6000602082019050610ecc6000830184610ea8565b92915050565b600080fd5b600080fd5b6000601f19601f8301169050919050565b7f4e487b7100000000000000000000000000000000000000000000000000000000600052604160045260246000fd5b610f2582610edc565b810181811067ffffffffffffffff82111715610f4457610f43610eed565b5b80604052505050565b6000610f57610e31565b9050610f638282610f1c565b919050565b600067ffffffffffffffff821115610f8357610f82610eed565b5b610f8c82610edc565b9050602081019050919050565b82818337600083830152505050565b6000610fbb610fb684610f68565b610f4d565b905082815260208101848484011115610fd757610fd6610ed7565b5b610fe2848285610f99565b509392505050565b600082601f830112610fff57610ffe610ed2565b5b813561100f848260208601610fa8565b91505092915050565b60008060006060848603121561103157611030610e3b565b5b600084013567ffffffffffffffff81111561104f5761104e610e40565b5b61105b86828701610fea565b935050602084013567ffffffffffffffff81111561107c5761107b610e40565b5b61108886828701610fea565b925050604061109986828701610e66565b9150509250925092565b600073ffffffffffffffffffffffffffffffffffffffff82169050919050565b60006110ce826110a3565b9050919050565b6110de816110c3565b82525050565b60006020820190506110f960008301846110d5565b92915050565b600081519050919050565b600082825260208201905092915050565b60005b8381101561113957808201518184015260208101905061111e565b60008484015250505050565b6000611150826110ff565b61115a818561110a565b935061116a81856020860161111b565b61117381610edc565b840191505092915050565b6000611189826110a3565b9050919050565b6111998161117e565b82525050565b60008115159050919050565b6111b48161119f565b82525050565b600060e08201905081810360008301526111d4818a611145565b905081810360208301526111e88189611145565b90506111f76040830188610ea8565b6112046060830187611190565b61121160808301866110d5565b61121e60a08301856111ab565b61122b60c08301846111ab565b98975050505050505050565b7f5365727669636520646f6573206e6f742065786973742e000000000000000000600082015250565b600061126d60178361110a565b915061127882611237565b602082019050919050565b6000602082019050818103600083015261129c81611260565b9050919050565b7f4f6e6c792062757965722063616e2063616c6c20746869732066756e6374696f60008201527f6e2e000000000000000000000000000000000000000000000000000000000000602082015250565b60006112ff60228361110a565b915061130a826112a3565b604082019050919050565b6000602082019050818103600083015261132e816112f2565b9050919050565b7f536572766963652077617320616c72656164792064656c6976657265642e0000600082015250565b600061136b601e8361110a565b915061137682611335565b602082019050919050565b6000602082019050818103600083015261139a8161135e565b9050919050565b7f4e6f2066756e647320746f20726566756e642e00000000000000000000000000600082015250565b60006113d760138361110a565b91506113e2826113a1565b602082019050919050565b60006020820190508181036000830152611406816113ca565b9050919050565b600081905092915050565b50565b600061142860008361140d565b915061143382611418565b600082019050919050565b60006114498261141b565b9150819050919050565b7f526566756e64206661696c65642e000000000000000000000000000000000000600082015250565b6000611489600e8361110a565b915061149482611453565b602082019050919050565b600060208201905081810360008301526114b88161147c565b9050919050565b60006060820190506114d46000830186610ea8565b6114e160208301856110d5565b6114ee6040830184610ea8565b949350505050565b7f5072696365206d7573742062652067726561746572207468616e20302e000000600082015250565b600061152c601d8361110a565b9150611537826114f6565b602082019050919050565b6000602082019050818103600083015261155b8161151f565b9050919050565b7f4e487b7100000000000000000000000000000000000000000000000000000000600052601160045260246000fd5b600061159c82610e45565b91507fffffffffffffffffffffffffffffffffffffffffffffffffffffffffffffffff82036115ce576115cd611562565b5b600182019050919050565b7f4e487b7100000000000000000000000000000000000000000000000000000000600052602260045260246000fd5b6000600282049050600182168061162057607f821691505b602082108103611633576116326115d9565b5b50919050565b60008190508160005260206000209050919050565b60006020601f8301049050919050565b600082821b905092915050565b60006008830261169b7fffffffffffffffffffffffffffffffffffffffffffffffffffffffffffffffff8261165e565b6116a5868361165e565b95508019841693508086168417925050509392505050565b6000819050919050565b60006116e26116dd6116d884610e45565b6116bd565b610e45565b9050919050565b6000819050919050565b6116fc836116c7565b611710611708826116e9565b84845461166b565b825550505050565b600090565b611725611718565b6117308184846116f3565b505050565b5b818110156117545761174960008261171d565b600181019050611736565b5050565b601f8211156117995761176a81611639565b6117738461164e565b81016020851015611782578190505b61179661178e8561164e565b830182611735565b50505b505050565b600082821c905092915050565b60006117bc6000198460080261179e565b1980831691505092915050565b60006117d583836117ab565b9150826002028217905092915050565b6117ee826110ff565b67ffffffffffffffff81111561180757611806610eed565b5b6118118254611608565b61181c828285611758565b600060209050601f83116001811461184f576000841561183d578287015190505b61184785826117c9565b8655506118af565b601f19841661185d86611639565b60005b8281101561188557848901518255600182019150602085019450602081019050611860565b868310156118a2578489015161189e601f8916826117ab565b8355505b6001600288020188555050505b505050505050565b60006080820190506118cc6000830187610ea8565b81810360208301526118de8186611145565b90506118ed6040830185610ea8565b6118fa60608301846110d5565b95945050505050565b7f53657276696365206973206e6f74206163746976652e00000000000000000000600082015250565b600061193960168361110a565b915061194482611903565b602082019050919050565b600060208201905081810360008301526119688161192c565b9050919050565b7f57726f6e6720616d6f756e742e00000000000000000000000000000000000000600082015250565b60006119a5600d8361110a565b91506119b08261196f565b602082019050919050565b600060208201905081810360008301526119d481611998565b9050919050565b7f596f7520616c726561647920626f75676874207468697320736572766963652e600082015250565b6000611a1160208361110a565b9150611a1c826119db565b602082019050919050565b60006020820190508181036000830152611a4081611a04565b9050919050565b7f4e6f2066756e647320696e2074686520657363726f772e000000000000000000600082015250565b6000611a7d60178361110a565b9150611a8882611a47565b602082019050919050565b60006020820190508181036000830152611aac81611a70565b9050919050565b7f5472616e73666572206661696c65642e00000000000000000000000000000000600082015250565b6000611ae960108361110a565b9150611af482611ab3565b602082019050919050565b60006020820190508181036000830152611b1881611adc565b905091905056fea2646970667358221220dc76be4c38310ab91ab3330803ea42aded18aacdc8bc68db22a376480a952c1864736f6c634300081c0033",
  "linkReferences": {},
  "deployedLinkReferences": {}
}